S02400007573625F6465766963655F636F6D706F736974655F736B79776F726B732E73333799
S1130000001000205D0600005181000051810000B5
S11300105181000051810000518100005181000094
S113002051810000518100005181000071010000E4
S11300305181000051810000A1010000CF94000013
S11300405181000051810000518100005181000064
S11300505181000051810000518100005181000054
S11300605181000051810000518100005181000044
S11300705181000051810000518100005181000034
S11300805181000051810000518100005181000024
S11300905181000051810000518100005181000014
S11300A05181000051810000518100005181000004
S11300B051810000518100005181000051810000F4
S11300C051810000518100005181000051810000E4
S11300D051810000518100005181000051810000D4
S11300E051810000518100005181000051810000C4
S11300F051810000518100005181000051810000B4
S113010051810000518100005181000051810000A3
S11301105181000051810000518100005181000093
S11301205181000051810000518100005181000083
S11301305181000051810000F954000051810000F8
S11301405181000051810000518100005181000063
S1130150000000000000000000000000000000009B
S1130160013800D0FCE770470000000000000000E8
S1130170074B19680868B0E8F04F80F30988BFF3AB
S11301806F8F4FF0000080F311887047AFF3008049
S1130190782C002000000000000000000000000097
S11301A0EFF30980BFF36F8F154B1A681EF0100F21
S11301B008BF20ED108A20E9F04F10602DE90900F6
S11301C04FF0600080F31188BFF34F8FBFF36F8F40
S11301D006F0EEFB4FF0000080F3118809BC1968AB
S11301E00868B0E8F04F1EF0100F08BFB0EC108A9A
S11301F080F30988BFF36F8F704700BFAFF30080AF
S1130200782C002000000000000000000000000026
S113021001F0FF01102A2BDB10F0070F08D010F8B3
S1130220013B013A8B422DD010F0070F42B3F6D1B7
S1130230F0B441EA012141EA014122F007047FF0D0
S113024000070023F0E80256083C85EA010586EA27
S1130250010685FA47F5A3FA87F586FA47F6A5FA63
S113026087F68EB9EED1F0BC01F0FF0102F007026F
S113027032B110F8013B013A83EA010313B1F8D11A
S11302800020704701387047002D06BF35460338FB
S1130290073815F0010F07D1013015F4807F02BF34
S11302A0013015F4C03F0130F0BC0138704700BF85
S11302B00348044B834202D0034B03B118477047F1
S11302C08C1000208C100020000000000548064B14
S11302D01B1AD90F01EBA301491002D0034B03B140
S11302E0184770478C1000208C100020000000007C
S11302F010B5064C237843B9FFF7DAFF044B13B16A
S11303000448AFF300800123237010BD7A2E00202F
S113031000000000FCA5000008B5054B1BB1054911
S11303200548AFF30080BDE80840FFF7CFBF00BF2A
S1130330000000008C100020FCA50000A3F5803A0A
S1130340704700BF174B002B08BF134B9D46FFF7A8
S1130350F5FF00218B460F461348144A121A09F080
S1130360CCFA0E4B002B00D098470D4B002B00D03D
S113037098470020002104000D000D48002802D0F9
S11303800C48AFF3008007F025FB2000290007F09C
S113039097FE07F031F900BF0000080000000000DC
S11303A000000000001000208C10002040CC002031
S11303B0000000000000000038B501F099FA12486E
S11303C0124C012100F0DCFA01221146002001F058
S11303D0FBF9022501221146C4F88050002001F0E7
S11303E0F3F901221146C4F88450002001F0ECF91D
S11303F00122C4F88C501146002001F0E5F9C4F83C
S11304008850002038BD00BF30053E0000400E403B
S113041008B54FF0804301225A6403F564231C4954
S1130420D3F8B02042F00102C3F8B020D3F8E020A2
S113043042F00802C3F8E0204A6B42F480524A6357
S1130440D3F8E02022F00802C3F8E020D3F8B0206B
S113045022F00102C3F8B0200E4AD2F8A43143F4CA
S1130460F843C2F8A43101F0A3FE00F0F1F801F062
S113047045FE01F089FE01F057FEFFF79DFF07F0EE
S1130480B0FE00F0D9F8BDE8084005F055B800BF4B
S11304900040054000300E40F7B50023164A8DF8A1
S11304A0073003210DF10703402002F02FF9134B0D
S11304B09DF80720124913481A7007F001FA124DEB
S11304C0124E104F04460CB903B0F0BD2946204625
S11304D009F046FA20B13946204609F041FA20B91C
S11304E031789DF8070002F05DF90549002007F016
S11304F0E7F90446E7E700BF109E00007B2E0020CA
S1130500009E0000039E0000079E00005A2F00205A
S11305102DE9FF4100250DF10F008DF80E5002F07A
S11305206DFE9DF80F30012B02D902F0EDFD01257F
S1130530294A2A4E2A4FDFF8B4800DF10E03022116
S1130540002002F0AFF9274B9DF80E2026492748DA
S11305501A7007F0B5F9044644BB254B254A1946E1
S113056013F8010B02F8140001344E2CF8D1224B7D
S1130570224A03F1100053F8044B42F8044B83421F
S1130580F9D19C23CDE900131D4A9DF80E00502398
S1130590012102F065FA18B11A48B62107F0DFFD0F
S11305A00DB102F093FD04B0BDE8F0813146204660
S11305B009F0D6F920B14146204609F0D1F920B915
S11305C039789DF80E0002F09FF90749002007F0E2
S11305D077F90446C0E700BF489F0000079E00006B
S11305E05A2F00207C2E0020009E0000039E000055
S11305F0209E00007D2E00200C9F0000192F00205B
S1130600BC9E00001C9F00001FB500238DF80F3016
S11306100DF10F0300930222054B6421012002F027
S11306208BFD9DF80F20034B1A7005B05DF804FB99
S1130630549F00005A2F002008B50448012100F0FF
S11306409FF9BDE8084007F047BD00BF00550A0008
S11306500148012100F094B900550A0008B500F0E2
S113066093F8124B12498B4212D3124B12490020B9
S11306708B4218D3FFF766FE186850F8224058687A
S113068040F82240013298688242F5D30C33EAE7FD
S11306900022F8E71C6844F8220001325C68A24298
S11306A0F8D30833E4E70022F8E700BF04A600000B
S11306B010A6000010A6000010A600000048704715
S11306C000A24A04174AD2F8943003F00703023B0D
S11306D0042B1FD8DFE803F00620031A0800124B8E
S11306E01B680AE0114BFBE79368C3F30443073B21
S11306F0072B14D80E4A52F823300A4AD2F80001C4
S1130700C0F304200130B3FBF0F07047094B1B68C1
S11307105B08F2E7074BE3E74FF40043EDE7002300
S1130720EBE700BF00400E40081000200C10002032
S1130730689F00000010002008B5FFF7C3FF054BB9
S1130740D3F80831C3F308230133B0FBF3F0024BB1
S1130750186008BD00400E4004100020014B1868CA
S1130760704700BF0C100020054B1860054BD3F8F0
S1130770943003F00703022B01D1FFF7DDBF70476C
S11307800C10002000400E40044B054A9A60D3F838
S1130790882042F47002C3F88820704700ED00E01E
S11307A000000000014B1868704700BF08100020CB
S11307B0054A06490346106803448B4294BF1360FC
S11307C04FF0FF30704700BF1010002000000820D9
S11307D00C4B984205D90C4B984210D801220123A6
S11307E001E00022134609490B640949D1F800319C
S11307F023F0407343EA0263C1F8003170470222D8
S1130800EDE700BF0048E8010090D0030000C843B2
S113081000400E4038B54FF0804300225B68104B17
S1130820C9B21C461D798D4202D11D6885420BD286
S11308300132072A03F10803F4D141F614010948EF
S113084007F08DFC032102E004EBC20461794FF050
S11308508042536823F0407343EA0163536038BD18
S11308609CA00000889F0000044BDB6B5B0604D453
S1130870034AD2F8C830002BFBD1704700300E4039
S11308800000C64308B5FFF7EFFF024B5868C0F3FA
S1130890014008BD00300E40044BD3F84421D20778
S11308A003D4D3F840211042FBD1704700400E40DE
S11308B0B0F5004F38B5054600F1010412D30F48D6
S11308C040F6326107F04BFC64B90D4840F27711F1
S11308D007F045FC4FF0FF34084840F6396107F053
S11308E03EFC08E0B4FA84F4C4F11F040123A340DD
S11308F0013BAB42F0D1204638BD00BFB79F00009A
S113090014A000004FF0804341F6713270B51E6CA4
S11309101A640D460446FFF77DFF022D144BB6B250
S113092007D1144A944214D94FF08C42C2F80031D2
S113093009E0114A94420CD94FF08C42C2F80031BC
S11309400E4B9C4208D84FF088434FF480521A60F3
S113095007E04FF08842E9E7002DF4D14FF48053CB
S113096013601EB14FF0804300221A6470BD00BFB3
S1130970020202000024F40080D5430280F0FA024F
S113098038B5C0F30323013B0E2B1DD8DFE803F079
S1130990234B1C1C4F423D372F2708161C472B00A6
S11309A0254D81F00101C0F3043405F1424505F5FC
S11309B0801504EBC5008000016038BD1F4D81F037
S11309C00101C0F30434F0E7BDE838401C4841F6A7
S11309D0B05107F0C4BB1B4DC0F30434E5E71A4D16
S11309E0C0F30434E1E7194DC0F30434DDE7184DD6
S11309F0C0F304344FF48030FFF74EFFD5E7C0F363
S1130A000434144D4FF48070F6E7C0F30434124DEF
S1130A101020F1E7C0F30434104D0120ECE7104D31
S1130A20C0F30434C1E70F4DC0F30434BDE70E4DE9
S1130A30C0F30434B9E700BF60410E4064410E4086
S1130A40889F000000400E4050410E40F0410E408F
S1130A50F0400E40EC400E40E8400E40E0400E40B6
S1130A60C4400E40C0400E40B0400E4008B5C0F334
S1130A700313013B0B2B00F2AB80DFE803F0060C01
S1130A80101A2024282C668692A5534BD3F8000113
S1130A90C0F3042008BD504BD3F81401F8E74E4BC3
S1130AA0D3F80031C3F301630133012098400138C6
S1130AB0F0E7494BD3F80C01C0F30820EAE7464BB2
S1130AC0D3F81801F8E7444BD3F81C01F4E7424B80
S1130AD0D3F80801F0E7414B98422AD00ED8A3F589
S1130AE0BA2398422BD003F57033984215D041F6BF
S1130AF054713B4807F033FB0020CBE7394B984255
S1130B0005D0394B98420ED0384B9842EFD1324B36
S1130B10D3F82031C3F30233C7E72F4BD3F8203186
S1130B2003F00F03C1E72C4BD3F82031C3F30123A7
S1130B30BBE7294BD3F82031C3F30313B5E7264BA6
S1130B40D3F82031C3F30343AFE7294B98420CD0C9
S1130B5003F5A11398420ED0264B984212D11E4B96
S1130B60D3F8283103F003039FE71B4BD3F8283154
S1130B70C3F3011399E7184BD3F82831C3F30133B6
S1130B80043392E741F67871B3E71B4B984205D1E1
S1130B90114BD3F8300100F003007BE741F6877175
S1130BA0A7E7164B984205D0154B984206D041F65C
S1130BB09F719EE7084BD3F85C01ECE7064BD3F832
S1130BC05C01C0F3014065E7034BD3F8040173E70C
S1130BD041F6AC718DE700BF00400E40801618004E
S1130BE0889F000000362C0080262E0080002A00FA
S1130BF090171C0090071A00A0091400B8003200D6
S1130C00B9003400C0F30313013B10B50C460B2BA1
S1130C1000F21682DFE813F00C0034004500600097
S1130C20740088009C00BC006101CC01D801000262
S1130C301F2904D9C44841F6D57107F090FA07F08A
S1130C40B1FAC248FFF7C4FD00F008FAC04AD2F86E
S1130C50003123F4F85343EA0423C2F80031FFF7C8
S1130C606BFD0446FFF70EFE01462046FFF74AFEE1
S1130C70FFF728FDFFF7ACFDBDE8104000F004BA13
S1130C801F2904D9B04841F6EB7107F068FAB04A5D
S1130C90D2F8143123F4F85343EA0423C2F814318C
S1130CA010BD4B1EB3F5004F0DD2B4FA84F4A84A1C
S1130CB0D2F80031C4F11F0423F0407343EA046303
S1130CC0C2F80031ECE7A34840F6935107F047FA25
S1130CD0002CEAD12024EAE7B1F5007F04D39A4836
S1130CE041F6F87107F03BFA994AD2F80C3123F433
S1130CF0FF3323F4807343EA0423C2F80C31CFE7B3
S1130D00B1F5007F04D3904841F6FF7107F027FA4C
S1130D108F4AD2F8183123F4FF3323F4807343EA63
S1130D200423C2F81831BBE7B1F5007F04D3864829
S1130D3042F2070107F013FA854AD2F81C3123F472
S1130D40FF3323F4807343EA0423C2F81C31A7E77A
S1130D50B1F5007F04D37C4842F20E0107F0FFF99D
S1130D6007F020FA7A4AD2F8083123F4FF3323F447
S1130D70807343EA0423C2F80831FFF7DDFC04461C
S1130D80FFF780FD01462046BDE81040FFF7BABDDD
S1130D90714B984274D010D8704B984246D0704B27
S1130DA0984257D0A3F57033984226D042F28A0174
S1130DB0BDE81040644807F0D2B96A4B984205D0A8
S1130DC0694B984273D0694B9842EFD1B4F5004F08
S1130DD004D95D4842F27C0107F0C1F92046FFF7CF
S1130DE067FD01460420FFF757FD594AD2F8203128
S1130DF023F4E04343EA013315E0B1F5004F04D98D
S1130E00514842F2200107F0AAF92046FFF750FDAD
S1130E1001460420FFF740FD4D4AD2F8203123F467
S1130E20702343EA0143C2F8203139E7022904D987
S1130E3042F23101444807F092F94FF48020FFF761
S1130E402BFD434AD2F8303123F003032343C2F885
S1130E50303125E7B1F5004F04D93B4842F24E0149
S1130E6007F07DF92046FFF723FD01460420FFF734
S1130E7013FD374AD2F8203123F00F030B43D2E796
S1130E80B1F5004F04D9304842F25D0107F067F92B
S1130E902046FFF70DFD01460420FFF7FDFC2C4A18
S1130EA0D2F8203123F0F00343EA0113BBE7082909
S1130EB004D9254842F26C0107F051F92046FFF7A6
S1130EC0F7FC01460420FFF7E7FC214AD2F8203161
S1130ED023F4407343EA0123A5E7254B98421DD030
S1130EE003F5A113984247D0224B98425DD10829BB
S1130EF004D9154842F2930107F031F92046FFF76F
S1130F00D7FC01464020FFF7C7FC114AD2F828312C
S1130F1023F003030B43C2F82831C1E6082904D99E
S1130F20094842F2A20107F01AF92046FFF7C0FC73
S1130F3001464020FFF7B0FC054AD2F8283123F0DF
S1130F40300343EA0113E6E7889F00000148E80103
S1130F5000400E40B79F000080161800A00914003E
S1130F608006160000362C0080262E0080002A0001
S1130F7090171C0090071A00A1F10F03702B04D9DD
S1130F80314842F2B10107F0EAF82046FFF790FC3D
S1130F9001464020FFF780FC2C4AD2F8283104395E
S1130FA023F4405343EA0133B5E74FF40351FFE61A
S1130FB0274B984205D102297FF63FAF42F2CA017E
S1130FC038E742F2DA01F3E6224B984205D0224B8D
S1130FD0984212D042F2F301EAE6032904D91A48EE
S1130FE042F2E50107F0BBF8184AD2F85C3123F06D
S1130FF003032343C2F85C3152E6032904D912489F
S113100042F2ED0107F0ABF8104AD2F85C3123F458
S1131010403343EA0443EDE7B1F5007F04D30A48C3
S113102042F2FB0107F09BF8084AD2F8043123F49A
S1131030FF3323F4807343EA0423C2F804312FE618
S113104042F20211B4E600BF889F000000400E4047
S1131050A0091400B8003200B900340008B50748EC
S11310600321FFF7CFFD06480321FFF7CBFDBDE8C1
S1131070084004480321FFF7C5BD00BF40410500F7
S1131080504107006041090038B5FFF71BFB0446D7
S1131090FFF7F8FB022817D11A4B1B481C449C424B
S11310A091BF00240133B4FBF3F404F1FF3421466F
S11310B0FFF7A8FD15482146FFF7A4FD1448214673
S11310C0BDE83840FFF79EBD124B0F48E5189D421E
S11310D089BF01330025B5FBF3F505F1FF3529463A
S11310E0FFF790FD29460A48FFF78CFD0A4B074895
S11310F01C449C4289BF01330021B4FBF3F404F186
S1131100FF31DDE7FF2C310140410500504107006C
S1131110604109007FF0FA02FFA14A0400F00F00C9
S1131120013808B50B2800F28480DFE800F00615CA
S11311302434303882414E5C6A6E494BD3F8943083
S113114003F00703023B052B6FD8DFE803F07F872A
S11311506C0385790D2008BD414BD3F8800000F065
S113116007000228F7D004286ED0012808BF032006
S113117018BF0120EFE73A4BD3F8843003F007039C
S1131180013B032B4DD8DFE803F0694E5D5F344B20
S1131190D3F88800E3E7324BD3F88C00DFE7304B19
S11311A01B6F13F0030355D0012B08BF0920DFE7A1
S11311B02B4BD3F85C3103F03003202B46D0302B7B
S11311C046D0102B08BF0720D2E7254BD3F85C315B
S11311D003F44013B3F5001F38D0B3F5401F37D0E4
S11311E0B3F5801FEEE71E4BD3F8603103F0030321
S11311F0022B2FD0032B2FD0012B0CBF0420052052
S1131200A9E7174BD3F86431F0E7154BD3F8F03165
S113121003F00703052B04D8DFE803F01E180907C1
S11312200520012097E7022095E7052093E70B208E
S113123091E70C4842F2013106F091FF00208AE761
S11312400E2088E7062086E70C2084E7042082E746
S1131250082080E707207EE70A207CE703207AE75E
S113126000400E40889F00002D4B984210B5044664
S11312700DD1FFF753FF2B4BD3F88C4004F0070438
S1131280042C45D8DFE804F0492E323A360011D850
S1131290254B984205D1FFF741FF224BD3F88040FC
S11312A0ECE7224B98420ED1FFF738FF1D4BD3F8E1
S11312B08440E3E71E4B984205D1FFF72FFF194BFB
S11312C0D3F88840DAE741F613111A4806F047FFCD
S11312D02046FFF723FF41F642110446154806F065
S11312E03EFFCDE7BDE8104006F033BFBDE8104037
S11312F0FFF758BABDE8104006F02EBFFFF7E2F939
S1131300084BD3F80031C3F301630133D84010BD57
S1131310084841F6941106F022FF0020F7E700BFC9
S11313200400220000400E4002001E0003002000C2
S113133005002400889F0000012808B514BF124846
S11313401248FFF7EBFE0138072816D8DFE800F053
S11313501A1515071515040B0D4B186813E0BDE895
S11313600840FFF7FBB9FFF7ADF90A4BD3F800319A
S1131370C3F3042303FB000005E0074841F20D71A9
S113138006F0EDFE002008BDB8003200B9003400BC
S11313901810002000400E40889F000038B500F46B
S11313A07813B3F5E01F054600F0F28049D8B3F591
S11313B0602F00F0048123D8B3F5C02F00F09E8085
S11313C00DD8B3F5003F00F0A580B3F5802F00F0F1
S11313D08A80002B00F0FB804FF4F751FDE0B3F559
S11313E0202F00F09180B3F5402F00F09980B3F5E1
S11313F0002FF1D1FFF766F9AB4BD3F81C3177E03E
S1131400B3F5B01F00F0A7800DD8B3F5901F00F01E
S11314108F80B3F5A01F00F09580B3F5801FDBD15A
S1131420A24B186869E0B3F5C01F00F09D80B3F5C6
S1131430D01FD1D19E48FFF717FF9B4BD3F828311B
S113144086E0B3F5401F00F0AC8023D8B3F5201F2D
S113145000F0B1800FD8B3F5001F00F09780B3F50A
S1131460101F00F0AA80B3F5F01FB5D19148BDE874
S11314703840FFF7F9BEB3F5281F7ED0B3F5381F07
S1131480AAD18C48FFF7F0FE874BD3F82031C3F381
S1131490012355E0B3F5601F00F0C78013D8B3F5FE
S11314A0501F00F09F80B3F5581F00F0A480B3F5DF
S11314B0481F91D10020FFF73FFF7B4BD3F85C31ED
S11314C003F0030316E0B3F5681F00F0C880B3F51A
S11314D0781F81D1FFF7F6F80446284606F073FE1C
S11314E0B4FBF0F009E0FFF7EDF86F4BD3F80C31E3
S11314F0C3F308230133B0FBF3F038BDFFF7E2F880
S1131500694BD3F81831F3E7FFF7DCF8664BD3F8EF
S11315100431EDE7FFF7D6F8634BD3F80831E7E77A
S1131520FFF7D0F8604BD3F81431C3F30423E1E799
S11315306048FFF799FE5C4BD3F82031C3F30343B3
S1131540D840DAE75C48FFF78FFE574BD3F83031C9
S113155003F00303F4E75748FFF786FE524BD3F832
S1131560203103F00F03EBE75248FFF77DFE4E4BAB
S1131570D3F82031C3F30313E2E74E48FFF774FEB8
S1131580494BD3F82031C3F30233D9E748486EE717
S11315904748FFF769FE444BD3F82831C3F30113DE
S11315A0CEE74348FFF760FE3F4BD3F82831C3F33F
S11315B001330433C4E7414859E73F4857E74048FB
S11315C0FFF7ACFD07283FF42BAF092803D1BDE892
S11315D03840FFF777B841F2D6613A4806F0BFFDCC
S11315E000208AE70120FFF7A7FE2F4BD3F85C31D8
S11315F0C3F301437EE73448FFF790FD043806281F
S113160010D801A353F820F07D1600008D160000B9
S113161025160000211400002516000025160000E0
S11316207916000041F23771D7E72848FFF776FDB5
S11316300438062810D801A353F820F07D160000C2
S11316408D160000591600002114000059160000E0
S1131650591600007916000041F26971BDE71C4873
S1131660FFF75CFD023809281AD8DFE800F01115ED
S1131670070F19191919050B164BD2E6BDE83840A6
S1131680FFF76CB8FFF76AF8400036E7124BC8E67C
S1131690BDE83840FFF786B8BDE8384006F059BDCC
S11316A04FF4BE5199E700BF00400E4018100020CF
S11316B00300200002001E00050024000400220094
S11316C006000E00889F00000A7B36000B7C380061
S11316D00C7F3A00141000200010002038B5184B7D
S11316E09842054628D00CD8164B984210D0164B79
S11316F098421DD00024154842F60F2106F02FFD14
S11317000CE0134B9842F5D1124BD3F8384302E066
S1131710104BD3F81C43631E0333ECD80E4B0F4A13
S11317201D60D2F87838002BFBD10D4B9C6038BD7E
S1131730084BD3F82C43EEE7064BD3F83443EAE7DF
S1131740006CDC020024F4000048E801889F0000DB
S113175080F0FA020081E00F141000200020C8433A
S113176000400E40014B1880704700BF82100020DB
S1131770014B1880704700BF80100020022838B544
S11317800C4604D00D4842F62D5106F0E8FC0C4DF1
S11317906B6AC3F30113012B0DD064B1074842F601
S11317A0485106F0DCFC074BD5F8902033EA0202DE
S11317B0FAD1012038BD4FF48003F5E7889F00007B
S11317C000400E40FF3F473A05282DE9F047044604
S11317D00F46914621D83E4B3E4A13F800A03E4B9B
S11317E013F800803D4B33F810603D4B33F8103054
S11317F0D1B91366012303FA08F3D2F89010194201
S1131800FBD1B9F1000F5ED00123324903FA0AF388
S1131810D1F890201A42FBD155E0BDE8F047314899
S113182042F6F93106F09BBC02284ED1536AC3F349
S11318300113012B49D12C4BDB6B5B0504D42948E4
S113184042F6084106F08BFC224A536A03F0030374
S1131850032B05D1536A23F0300343F02003536272
S1131860224D1C4BA8441E664FEA8808D8F8003065
S1131870002BFBD0B9F1000F25D05544AD002B68E7
S1131880002BFCD0022C1ED1EFB1124B5B6A03F08B
S11318900303032B03D000212046FFF76FFF1148F9
S11318A042F68B4106F05BFC012200210220FFF787
S11318B08BFF0C4842F6155106F051FC054B1E6691
S11318C02B68002BFCD0BDE8F0870027C8E700BFD9
S11318D094A0000000400E408EA0000082A00000F2
S11318E076A00000889F000000300E408004F210B3
S11318F038B5FEF733FF0021044600F065F91448BB
S1131900FEF766FF012211460220FFF75DFF06F095
S113191049FCFFF7A3FB0CB1FEF7A6FF0D4B022217
S11319205A67FEF7CFFEFEF753FFFEF705FF0546A5
S1131930FEF7A8FF01462846FEF7E4FF1CB9012183
S1131940204600F041F9BDE83840FFF79DBB00BFD9
S11319500148E80100400E4038B504461120FFF765
S1131960DDFB042804D1214842F6732106F0F7FB7D
S1131970012200210220FFF727FFE37A012B08D080
S1131980022B30D023B1194842F6872106F0E7FB39
S11319900023174D6A6A22F0030213436B62FEF7B9
S11319A0DDFE144A6B6A90428CBF0020012023F0B4
S11319B0080343EAC0036B622288A38843EAC22374
S11319C0EB622B6BE2881B0D1B051343628843EA11
S11319D0C2232B63637A227A1B0143EA0233A27A7D
S11319E013436B6338BD0323D3E700BF889F000014
S11319F000400E4040787D0170B505461120FFF788
S1131A008DFB022804D10F4842F62B3106F0A7FBC8
S1131A100D4E0E4CB26B6B7814402A78144344EA92
S1131A20C324AB7844EA0364EB7844EA0324B36B3D
S1131A30A34205D0002101220846FFF7C5FEB46386
S1131A4070BD00BF889F000000400E4080E4FFF896
S1131A50034BD86B80F04000C0F38010704700BF88
S1131A6000300E4042EA0322B2F5007F10B5194C53
S1131A7029D00AD8B2F5807F22D040F201139A42CD
S1131A8015D062B9D4F81C320BE0B2F5407F1DD0FA
S1131A9040F201339A4210D0D4F8283201E0D4F84D
S1131AA02432C3F30722DBB203600A6010BDD4F80A
S1131AB024321A0EC3F30743F6E7D4F82832F8E7C2
S1131AC0D4F81C32F5E7D4F82032EAE7D4F820320F
S1131AD0EFE700BF0081E00F08B5FFF7B9FF20B1C1
S1131AE0024AD2F8C830002BFBD108BD0000C6431F
S1131AF00E4A0379916921F03F010B43017843EACF
S1131B008103417843EA4103817843EAC103C17800
S1131B10012908BF43F0010393611368417923F459
S1131B20403343EA01431360704700BF00300E4066
S1131B302DE9F04104460F46FFF78AFFC8B3DFF8EA
S1131B408480FFF7C9FFD8F80430C3F301439C42F3
S1131B502FD0194BD3F80061FEF7B4FD022C0546D3
S1131B6017D1164BC6F3042606FB00069E4204D981
S1131B70134840F2AD7106F0F2FA02212846FEF74E
S1131B80C1FE104B10221A619FB1BDE8F041FFF76E
S1131B90A3BFC4F1020210239340C8F810300FB160
S1131BA0FFF79AFF2CB921462846BDE8F041FEF71D
S1131BB0A9BEBDE8F08100BF00400E40002D3101F8
S1131BC0D4A0000000300E4038B505460C46FFF79F
S1131BD03FFFB8B145B90C4BD3F80051FEF772FD85
S1131BE0C5F3042505FB0005084B1B7821463BB1D2
S1131BF0074B9D4204D80220BDE83840FFF798BF48
S1131C000020F9E738BD00BF00400E405B2F0020E4
S1131C10002D3101174B4AF6E85210B5596B5A633F
S1131C209A6FD407FCD41B6C13F0030306D0124A3A
S1131C3001249842C2F8B44A05D110BD18B90E4B1C
S1131C40C3F8B40AF9E70B4B9A6FD207FCD41A6CA9
S1131C5022F0030202431A649A6F12F00102FBD1CC
S1131C600038054C18BF01200129C4F8B40A08BF84
S1131C705A63E2E700300E400000C6432DE9F04FFE
S1131C8000238BB0CDE90433CDE90633CDE9083325
S1131C90A0F5E163B3F5966F05460191934608D923
S1131CA04FF441616E4806F05AFA00200BB0BDE8CB
S1131CB0F08F6C4BDFF8B081D3F81842B0F5E16FC8
S1131CC015BF4FEA146AC4F3072AC4F30744E4B205
S1131CD00694CDF824A0D8F84C60C6F301768CBFE6
S1131CE001220022334607A904A815BF4FF4E16777
S1131CF04FF496674FF496694FF416790392FFF701
S1131D00B1FED8F8EC30039AC3F3012308A905A85F
S1131D100293FFF7A7FEA5EB070CAAEB04020CFB4A
S1131D2002F2B2FBF9F214445445079F0498089A4E
S1131D3005991ED8A2EB010E0CFB0EFEBEFBF9FEAC
S1131D4011EB0E012CBF4FF0010E4FF0000E8A4232
S1131D500FD3BEF1000F0CD13A1A0CFB02F2B2FB06
S1131D60F9F280182CBF01220022874201D3029B82
S1131D7012B140F65E4195E7BBF1000F0FD0D8F8E1
S1131D805C20B5F5E16722F4FE4218BF012722F07A
S1131D90020242EA470242EA0422C8F85C20019A9D
S1131DA00AB9012082E72F4A022ED2F8302212D03B
S1131DB0032E13D0012E14BFD2B2C2F30722120392
S1131DC012F4702F0CD040F61621254806F0C7F9FE
S1131DD040F66D4166E7C2F30742F0E7120EEEE704
S1131DE0214EF46E24F470442243F2661D4A022B01
S1131DF0D2F8302212D0032B13D0012B14BFD2B24D
S1131E00C2F30722120312F4702F0CD040F62221E1
S1131E10134806F0A4F940F6754143E7C2F30742BC
S1131E20F0E7120EEEE7104CD4F8EC3023F47043D4
S1131E301343C4F8EC30636E884238BF084623F479
S1131E40FF73E72823F0010328BFE720B5F5E16F0E
S1131E5018BF43F0010343EA40036366A1E700BFF0
S1131E60D4A000000081E00F00300E40324A08B5D3
S1131E70136FD16C11F0010F03F0060342D0002B55
S1131E8040D0132855D9143813288CBF10230823A5
S1131E902949013BCA6C180322F47F4240EA032318
S1131EA01343CB64254BCA6C1B88C2F3032228332B
S1131EB0013202EB820003EB5303B3FBF0F3C86C73
S1131EC0013B072B28BF072320F0EE6040EA0363A1
S1131ED043F48013CB641A4BB3F90030002B10DBAE
S1131EE02833500800EB420203EB5303B3FBF2F335
S1131EF00A6D072B28BF072322F0700242EA03135E
S1131F000B6508BDD16C01F00101194304D1092806
S1131F100FD90A380928B8E7D26CD20702D50BB911
S1131F202728B2E7074840F6B34106F018F9002322
S1131F30AEE70423ACE700BF00300E40782E00204B
S1131F40742E0020D4A000000C4BD3F8803910B5B7
S1131F50044633B9012804D9094840F6D14106F0B2
S1131F60FEF8084A136F23F0070323431367064B55
S1131F70BDE810401888FFF779BF00BF0000C643D2
S1131F80D4A0000000300E40762E002038B503891E
S1131F90C82B044604D9514840F6B52106F0DFF8B1
S1131FA0A28823899A4204D94C4840F6B62106F007
S1131FB0D6F8B4F90C30C82B04DD484840F6B721F4
S1131FC006F0CDF86378012B55D1A388C82B04D92A
S1131FD040F6BB21414806F0C2F8E28842F2107391
S1131FE09A4204D93D4840F6C82106F0B8F8E28880
S1131FF04A2A48D9B2F5FA7F47D340F6C3139A4226
S11320008CBF4FF040524FF000523549B4F90C00E8
S1132010CB6C23F0405323F001030028A8BF43F006
S113202001031343CB64D1F8EC30A28843F440732A
S1132030C1F8EC302B4B1A80CB6E43F08073CB6627
S1132040294BD3F8800900B10420FFF77DFF274B0B
S113205021891980264BB4F90C20A0881A80FFF737
S113206005FFA37BA3B1012B23D01C4840F6C71165
S113207006F075F80FE0022BAFD1A3880A2BACD978
S11320804FF42C61A6E70022BFE74FF08052BCE773
S1132090134B184A9A65012260881146FFF7EEFD3A
S11320A0054648B90D4840F6FF2106F058F8284681
S11320B038BD0B4B104AEDE7094AD36B43F48063F8
S11320C0D3636078FFF7A6FDA37AA3F120025342FD
S11320D05341054AC2F89437E9E700BFD4A0000091
S11320E000300E40762E00200000C643782E0020DB
S11320F0742E002077402057372110B77FB5094B45
S11321006A4603F11006154618685968144603C454
S11321100833B3422246F7D12846FFF737FF0020A1
S113212004B070BD04A100001FB5144A10685168C2
S113213001AB03C390681860114BD3F8B4201203A9
S113214016D5A3F500434FF6FF721B88934208BFD0
S113215084230C48ADF80630FEF706FB01A8FFF710
S1132160FBFB3220FFF704FB002005B05DF804FB05
S1132170D3F8B830C3F30803EBE700BF14A10000A1
S11321800081E00F80F0FA0207B5084B186801904F
S1132190462301A88DF80430FFF72EFC3220FFF708
S11321A0E1FA002003B05DF804FB00BF20A10000A9
S11321B010B50C480C4C6FF00403A02113F0800FF1
S11321C003F1010207D12344462A83F8001313467E
S11321D0F4D1002010BD03F00F03043B034419762F
S11321E01346EBE700ED00E000E100E010B5044623
S11321F0FEF7A2FA4FF47A729042B0FBF2F105D2E4
S11322003621BDE810400B4805F0A9BF0A4BB3FBCB
S1132210F1F30A49884201D93C21F2E702FB04F0B8
S1132220B0FBF3F0032804D9BDE810408008FDF7A3
S113223097BF10BD24A1000040420F00E7CD9A3B98
S1132240244B022283F86020A3F8842083F898208A
S113225004220020A3F8A420FF22C3E90200C3E95A
S11322600500C3E90E00C3E91100A3F8A2005870E9
S11322709870988098711882D86183F8310083F837
S11322803200988683F83600A3F84000D864986634
S113229083F86C2083F86420A3F86E00A3F8700020
S11322A083F87200986783F87C2083F87420A3F87D
S11322B07E00A3F8800083F88200A3F8882083F8C6
S11322C08A00C3F89400C3F88C00A3F8902083F824
S11322D092007047A41000202DE9F74F0E9D9DF841
S11322E030A0BDF83460019281460F4698468DB304
S11322F0BAF1000F09D016B1731E334205D0FF2383
S11323002B70212003B0BDE8F08F134C05F060FF63
S113231094F860302BB905F061FFFF232B7019206E
S1132320F0E703F1FF3B5FFA8BFB84F860B005F044
S113233055FF302303FB0B44019B84F8109084F871
S1132340118084F802A0A6806761A361002085F84B
S113235000B0D7E72220D5E7A41000202DE9F04FE4
S113236001288BB00746894600F2EA80774D05F0D4
S11323702FFFB5F88440024634B905F02FFF192623
S113238030460BB0BDE8F08F013CA4B204F1060B5B
S113239005EB0B1304330793302303FB0753A5F812
S11323A084409B79002B66D0B5F8A28043449BB24D
S11323B006930699B5F8A4308B42DED3069BA5F8A4
S11323C0A230104605F00AFF4FF0300A0DF1250344
S11323D004930AFB075A5E4B03939AF81130029355
S11323E09AF81030019302230093079A5949002365
S11323F0484600F00FFF06460028C1D105EB0B1B31
S11324009AF802309DF825108BF80410CBB1BAF875
S1132410043019F0800F1CBFDB009BB20DF12702C2
S1132420CDE90132002200920123484606F091FDD5
S1132430002840F0898005EB04139DF8272083F8D9
S11324406C20302303FB07539A79BAB93F4D07EB4D
S1132450470305EB041405EB0313A36605F0B8FE6C
S113246030237B43EA18012151700021EF54D161DC
S113247005F0B4FE84E706939846A2E705EB041240
S1132480D3F808A0A2F86E8005EB480B069B4345E1
S1132490DCD90DF1250304932F4B03939AF80130F3
S11324A002930A220023CDE900232C49079A4846C7
S11324B000F0B0FE002847D19AF802209DF82510BC
S11324C08AF80010AABB0DF127050123CDE90025E8
S11324D0484601F037F80346A0BB9DF827208BF847
S11324E099209DF82510CDE900050246484601F0E3
S11324F029F848BB15499DF827308BF89A303022CB
S11325000DF12603DAF804A0039302FB0712144B1F
S1132510029393790133DBB2019301EB0413484630
S113252093F864300093537C127C022100F024FF62
S113253050B908F101081FFA88F80BF1020BA5E75E
S113254021261DE706461BE7064619E7A4100020CE
S11325505FA10000C4A1000072A1000090A10000CE
S113256085A100002DE9F047804617461E46002B42
S113257043D0012804D9FF2333702120BDE8F0871C
S11325800029F8D11E4C05F023FE94F8985081469A
S11325902DB905F023FEFF2333701920EEE7013D2A
S11325A0EDB284F8985005F019FE302202FB08427F
S11325B0113592F806A0BAF1FE0F04EBC50101D162
S11325C04846E6E79368ABB99160302303FB0848BB
S11325D0484604EBC5040AF10103C8F80C1088F856
S11325E0063005F0FBFD00206770A070606086F87F
S11325F000A0C3E7D3685960E7E72220BEE700BF25
S1132600A41000202DE9F7430B9DBDF828801C463B
S1132610002D44D0012806D900232B702124204604
S113262003B0BDE8F0831F4B302606FB003043782F
S1132630022B03D000232B700224F0E7C6696170DB
S1132640A123237033782371002767716280A4F873
S1132650068005F0BDFD96F80C90B9F1000F17D176
S11326600127377305F0BAFD307A0F4B2146CDE9C7
S1132670006708F1080201F01FFC044668B105F088
S1132680A7FD86F80C9005F0A9FD85F80090C6E733
S113269005F0A4FD03242F70C1E72F70BFE72224A7
S11326A0BDE700BFA41000202D820000144B154884
S11326B0F0B502220021144D83F868204FF0FF0C7E
S11326C00A464FF4165708260C4683F800C05A7081
S11326D09F601A735A739E731A741A765A825A74C4
S11326E05A7683F8202083F82120DD615861C0E9FF
S11326F000440281343309B10020F0BD0121E4E734
S1132700601100204C110020581100202DE9F047E1
S1132710804686B08A4691461D46002B3BD01F4F0B
S113272005F056FD97F868403CB905F057FDFF23C6
S11327302B70192006B0BDE8F087013CE4B287F89D
S1132740684005F04BFD0DF11603CDE901833426F5
S113275001231349009304FB06720220FFF7BCFD1A
S113276010B1FF232B70E5E7024601460DF1170374
S11327709DF81600FFF7F6FE0028F2D16643BB1958
S1132780A3F8128083F819A0C3F804909DF81630BA
S1132790BB552C70CEE72220CCE700BF601100208F
S11327A0F8A10000012810B40AD8074A342343438F
S11327B0D41884F82200D05C5DF8044BFFF7CEBD3A
S11327C021205DF8044B7047601100200B4B93F8F7
S11327D044208A420ED093F88C208A420CD10122E4
S11327E048214A4302F1300119441344016093F82B
S11327F0450070470022F3E700207047CC11002009
S11328002DE9F041264D022385F89030002604235B
S113281085F8C43048274FF47F48344695F8903003
S1132820F0B283420DD8002195F8C4501C4B0A46DF
S1132830FF20CCB2A54203F10C031CD80020BDE854
S1132840F08178432B1825F80080303014220021C1
S11328502844C3E90344C3E90544C3E90744C3E97D
S113286009445C601C725C81DC6283F8454001367B
S113287007F043F8D2E7C3F8882083F88C0083F884
S11328808D0083F88E0083F88F0083F8902083F8FE
S1132890912083F8922083F893200131C9E700BF87
S11328A0CC1100202DE9F8430746894690461E4680
S11328B033B340B111B14B1E0B4204D0FF2333702C
S11328C02120BDE8F8830F4D05F082FC95F8904077
S11328D02CB905F083FCFF2333701920F1E7013C88
S11328E0E4B285F8904005F079FC482303FB0455D5
S11328F000202F72A5F80A90C5F80C803470E0E728
S11329002220DEE7CC1100202DE9F04F012889B008
S113291006460F4600F298804E4D05F059FC95F896
S1132920C43033B905F05AFC1924204609B0BDE877
S1132930F08F013B1FFA83F985F8C4304FF00C087F
S113294005F04CFC0DF11E03049308FB09F8424BFF
S1132950039308F19402FF23CDE9013300933F4927
S113296000232A44384600F055FC04460028DCD1F4
S11329704FF0480B0BFB065B9DF81E108BF84410C0
S11329800DF11F0ACDE9000A02460123384600F082
S1132990D9FD04460028C8D1A8449DF81F3088F802
S11329A098300246CDE9000A03469DF81E103846C9
S11329B000F0C8FD04460028B7D19DF81F3088F800
S11329C099309BF808304BB3BBF80A809DF81E1071
S11329D03B0644BF4FEAC8081FFA88F800220123C7
S11329E0CDE9018A0092384606F0B3FA034668BB83
S11329F04FF00C0B0BFB095B9DF81F208BF89A2002
S1132A009DF81E1000900246CDE9018A384606F072
S1132A10A0FAE8B99DF81F308BF89B3005F0D8FB7D
S1132A2048237343EA180121E95400235670536084
S1132A3005F0D4FB0C2303FB095906EBC60605EB92
S1132A40C605C9F8945070E721246EE704466CE784
S1132A5004466AE7CC110020192F002010A20000C0
S1132A602DE9F0470128DDE90887044689469246A6
S1132A701E4623D84B1E062B20D802B906BBB8F13C
S1132A80000F00D1E7B905F0A3FB0E4D48235C43CA
S1132A902A1992F84530591C82F84510142202FB79
S1132AA003442C44C4E90F8784F83090C4F834A05C
S1132AB0268705F093FB0020BDE8F0872120FBE783
S1132AC02220F9E7CC1100202DE9F04FD0F8309006
S1132AD090F83860458FDFF88CA087B004468846AC
S1132AE017460DF1140B002D3AD00FB93B461AE0EE
S1132AF0A38FB34226D8D4E90C239A422DD105F0F2
S1132B0067FBDAF80030B3F8D26A05F067FBCDF85A
S1132B1000B000233246606B402101F065FA0026C4
S1132B2003460028E1D0039305F052FB226C84F89D
S1132B30386065870AB1039B136005F04FFB07B04B
S1132B40BDE8F08F18F8013B09F80630013F013D5C
S1132B500136BFB2ADB2F6B2C5E700251923E2E7EC
S1132B602B46E0E79412002038B504460D4639B3ED
S1132B7090F8E00004F164020023D9B288420DD831
S1132B8005F026FB0F4A94F8E030126892F8D02A38
S1132B909A420BD805F022FB192038BD52F8041FC5
S1132BA08D4203F10103E8D10020F6E703F11A0294
S1132BB0013344F8225084F8E03005F00FFBF3E7CA
S1132BC02220EAE79412002030B5D0E90C239A427F
S1132BD085B0044618D190F8380098B105F0F8FA99
S1132BE00A4B1B68B3F8D25A05F0F8FA638F03AAAC
S1132BF00092003B94F83810606B18BF01232A46FA
S1132C0001F0F2F905B030BD0020FBE7941200207A
S1132C1070B50D461146044605F059FD4DB3EE2D31
S1132C2038D094F8E030013DEDB2AB4253D31A35BD
S1132C3054F82550002D4ED0284605F09CFA411C2E
S1132C404900FF2928BFFF2101F0FE01204605F0BD
S1132C50C0FD0321204605F0BCFD013D15F8011F10
S1132C6099B1204605F0B5FD0021204605F0B1FDDF
S1132C70F4E70421204605F0ACFD0321204605F0CD
S1132C80A8FDA18B204605F042FE2046BDE8704019
S1132C90FFF79ABF1221204605F09BFD0321204631
S1132CA005F097FD0D4E072516F8011B204605F08B
S1132CB090FD013D0021204605F08BFD15F0FF0538
S1132CC0F2D194F8E110204605F083FD2946204610
S1132CD005F07FFDD9E7222070BD00BFC2A200002D
S1132CE02DE9F04F584E89B0D6F800B004930D4644
S1132CF0BDF84C30059301465846144605F09AFC3D
S1132D008046002800F09D80294605F0A2FC8146FB
S1132D10002800F09680214605F0CBFC04460028EC
S1132D2000F08F8005F054FA336893F8E05545B904
S1132D3005F054FAFF231920159A137009B0BDE861
S1132D40F08F013DEDB283F8E05505F047FA37689E
S1132D509DF850200C2606FB05731E4683F8F224CA
S1132D6003F59E6A0022049B86F8F134A6F8F62443
S1132D7005F02EFAD9F81C10D8F82020039022EA86
S1132D8001026168049842EA01030DF11B020192F9
S1132D9007AA0092059A02930793C2F30A029DF8C8
S1132DA04810534605F02DFE9DF81B202AB90398C0
S1132DB005F014FAFF230E20BEE7059BB6F8F414C1
S1132DC003F4C0520A43A6F8F42496F8F024029BB4
S1132DD002F00F01D209013202EB41029BF86610A6
S1132DE0914238BF8BF86620079A616822EA030291
S1132DF00A43D9F81C1062600A43D8F82010C9F8B5
S1132E001C201143C8F82010227A013222720C22AD
S1132E1002FB05720021C2F8F81422696AB9C4F8E9
S1132E2010A00398C4F814A005F0D8F90C2303FBF0
S1132E300577002097F8F0347EE76269C2F808A0AD
S1132E40EFE7FF23212077E7941200202DE9F041DA
S1132E50964C974E012384F820310A2384F88C324F
S1132E6084F8A833142388B084F8EC3484F8E0356B
S1132E7041F28833A4F8D23A05F0AAF9346005F097
S1132E80ADF934688B4860630025FF274FF0400894
S1132E9042462946C4E9085525602571A562A785DF
S1132EA006F02BFD844BC4F8F430636B2363782263
S1132EB0294684F838506587A4F83C80256404F1D9
S1132EC0680006F01AFD20223946A4F8E050C4F840
S1132ED0E250C4F8E650C4F8EA50C4F8EE50A4F83E
S1132EE0445084F8665004F1460006F006FDC4E937
S1132EF04055C4E94255A4F8F25084F8F850A4F8B7
S1132F00FA50A4F8FC50C4F81C51C4F81051A4F8A9
S1132F101451C4F81851224604F5B471234683F8B9
S1132F20245183F8255183F82651C3F8385183F886
S1132F303C7183F83D5183F83E71C3E94A55C3E9B6
S1132F404C55C3E9505524338B42E8D104F58C70B9
S1132F502346002183F89812C3F89C12C3F8A812E0
S1132F60C3E9A411C3E9A8111C338342F2D104F5C7
S1132F70A07023460021FF2583F8AC1383F8AD131A
S1132F8083F8AE1383F8AF5383F8B013C3E9ED119C
S1132F9010338342F0D104F1F001FF20002382F8C2
S1132FA0F00482F8F13482F8F23482F8F63482F8CC
S1132FB0F734C2F8F8340C328A42F0D11E2384F874
S1132FC0D03A01F099F8044628BB0DF10F0006F041
S1132FD071FA35689DF80F302B71384BAB604FF4A4
S1132FE08073AB81364B2B61364B6B61364BAB61D7
S1132FF00DF10E0740F2094304AEAB83224605AB44
S11330000197009621462046049405F0FAFC9DF8A9
S11330100E3023B90E24204608B0BDE8F0819DF897
S1133020143003F00F02DB09013303EB420395F87C
S113303066209A424FF0000238BF85F866300121BD
S113304005ABCDE90067104605F0DBFC9DF80E30BA
S1133050002BDFD09DF81420BDF81830A5F84430BB
S1133060D309013302F00F0203EB420395F8662003
S113307029699A4238BF85F866302846FFF774FDFF
S113308004460028C7D169692846FFF76DFD044648
S11330900028C0D1A9692846FFF766FD0446002828
S11330A0B9D101F04FFB0446B5E700BFDC120020A4
S11330B0941200209C12002098120020FEFF34126B
S11330C044A2000051A2000059A2000038B50D4BE3
S11330D01D686B78012B13D81BB1BDE8384001F093
S11330E025BD01F027FC044640B901F01FFD04464C
S11330F005F06EF801236B7005F070F8204638BDBA
S11331000224FBE79412002038B50A4B1D686B7843
S113311073B1284605F00CFB01F05CFD044605F094
S113312057F801236B706B8005F058F8204638BDC2
S11331300224FBE7941200202DE9F84F0A9F8246EF
S11331408946984627B1B1F5FA7F04D9FF233B702D
S11331502120BDE8F88F284C26687378012B03D909
S1133160FF233B700220F4E705F032F8246894F85A
S1133170205101462DB905F031F8FF233B70192089
S1133180E7E796F82DB0013DBBF1FF0FEDB2F2D0A9
S11331900BF1010386F82D30282303FB054203FBC2
S11331A0054384F820510020C3F81C01336AF83227
S11331B0DBB932620846726205F010F8282303FB7B
S11331C005440323C4F818310023C4F8008184F8AB
S11331D0F8A0A4F8FA90A4F8FC3041463046FFF772
S11331E0C3FC28B1FF233B70B3E7736A5A62E1E77B
S11331F087F800B0ADE700BF9412002028B1044B5B
S11332001B685B780370002070472120704700BF63
S1133210941200202DE9F04F85B0CDE90123DDF8AB
S113322048908846B9F1000F03D031B9FF2389F8DB
S11332300030222005B0BDE8F08FD1E9042392B913
S1133240002BF3D1D8E9062382B9002BEED1494CE7
S1133250D4F800A09AF80130012B0AD9FF2389F889
S113326000300220E6E7002BECD1DFE7002BEED1A3
S1133270DCE70146504605F0DDF9074620B9FF2397
S113328089F800302120D5E704F0A2FF246894F8DF
S11332908C62014636B904F0A1FFFF2389F800309F
S11332A01920C7E794F8A853013EF6B2002DF2D0D6
S11332B03A7F013DFF2AEDB2EDD0531C84F88C62B5
S11332C084F8A8534FF01C0C3B77242303FB0640DF
S11332D00CFB054B03FB06430CFB054C4FF0000EA7
S11332E00BF5247BC3F844E1CCF8A8E2C3E94CBB5A
S11332F0FB6800F59270BBBBF86038610846039226
S113330004F06CFF242303FB06439DF8381083F874
S113331024119DF83C1083F825119DF8401083F882
S11333202611019AC3F82C2103214FF48070C3F8AD
S11333304011A3F83C01C3F82881C3F838B11C2319
S113334003FB0544029BC4F89032119BC4F8941209
S1133350C4F89C3219465046FFF706FC039A30B174
S1133360FF2389F8003065E73B691862C5E789F8EF
S113337000205FE7941200202DE9F04F87B0CDE9DB
S11333800123139E9DF840509DF844B08946002EB9
S113339000F08B8005EB0B07FE2F05DDFF23337058
S11333A0212007B0BDE8F08FDFF80481D8F800A031
S11333B00146504605F03EF904460028EED0FFB21F
S11333C02946B9420DD104F003FFD8F8003093F830
S11333D0EC14844699B904F001FFFF2333701920DB
S11333E0DFE7204605F035F90028D7D0837E013188
S11333F0FF2BC9B2E5D0FF2333702E20D1E701396A
S1133400C9B20A0102F56B7E1A44002083F8EC1459
S1133410C2F8B80394F81D8008F101009E44607757
S1133420B8F1000F27D1C4F814E0C4F818E06046DE
S1133430CDE90412039304F0D1FEDDE9033103EB7B
S11334400113019A83F8AD23029A83F8AE23059AF7
S113345083F8AC9383F8AF5383F8B0B3129BC2F8EC
S1133460B433BD420BD312995046FFF77DFBC8B16C
S1133470FF23337095E7A069C0F80CE0D5E729462F
S1133480204605F0E6F88146002887D0837EFF2B8E
S1133490B1D104F09DFE013589F81A8004F09EFE36
S11334A0EDB2DEE786F800807BE7222079E700BFF3
S11334B09412002013B5074B8DF807001868036CAD
S11334C01C6824B901220DF10701FFF7FDFA20461B
S11334D002B010BD94120020074A13B503461068C9
S11334E0026C14682CB9022201A9ADF80430FFF76C
S11334F0EBFA204602B010BD94120020074A13B51F
S113350003461068026C14682CB904220DEB020106
S11335100193FFF7D9FA204602B010BD941200209F
S11335200A4610B5014648B142B1054B1868036C10
S11335301C680CB9FFF7C8FA204610BD2124FBE72C
S113354094120020F0B585B00B9DBDF82840E5B17C
S1133550202C17D8072C09D87CB903950025009393
S1133560CDE901450223FFF7BBFB09E0084EA4F1B6
S11335700807BFB2FE40F607EFD4FF232B702120CB
S113358005B0F0BD402CF8D1E7E72220F8E700BFF2
S11335900101000107B50D4B02781B6883F8EA208E
S11335A0427883F8EB204288A3F8EC208288A3F8C1
S11335B0EE20C288A3F8F020684607238DF8003077
S11335C001F0AAF9002003B05DF804FB9412002076
S11335D02DE9F04F8BB0FFF779FDDFF8708808A86C
S11335E001F088F90028FAD19DF82030D8F800407D
S11335F0062B00F0B5804CD9072BF0D16378062B4D
S113360004BFA37863700027059704F0E1FDB4F8C4
S1133610EA20B4F8F030A4F8E220D4F8EC20A4F8BE
S1133620E830C4F8E42004F0D9FD94F8E2A094F85A
S1133630E3600AF06003202B0AF01F0500F01983F1
S1133640402B00F03683002B40F0D080012D00F099
S1133650D481022D00F08F82002D40F0C78004F049
S1133660B7FDD8F80030B3F8D25A04F0B7FD94F897
S1133670E200C009092E00F2B980DFE816F0550116
S11336809C01B7009C01B700A4007C00B70027018F
S1133690EC00042BA3D8DFE803F0032B37424C00E3
S11336A004F096FDE57805BB0123E37004F096FD74
S11336B0284604F00EFD05F0C1FE94F82C30FF2BD3
S11336C002D0204605F034F8B4F8440005F0A0FE1A
S11336D0022504F07DFD4FF440732380257104F02E
S11336E07DFD284604F0F5FC79E704F077FDE2E778
S11336F004F06EFD6378062B18BFA3700623637075
S113370004F06CFD0320EDE704F062FD6378062B02
S113371004BFA378637004F061FD0420E2E704F0C1
S113372057FD022363700123E37004F057FD00206A
S1133730D8E705F083FE94F82C30FF2B02D0204606
S113374004F0F6FF04F044FD4FF480732380FF235C
S113375084F82C300023E37004F040FD0120C1E71D
S11337606378062B04BFA378637009999DF8210040
S113377000F014FD33E7002838D0B4F8E410606B8F
S1133780B4F8E820002507950B0A20634020A087A1
S1133790022B07A8C9B220640DD0032B0FD0012B34
S11337A001D0256422E01146204605F0BDF800282A
S11337B0F7D1206436E0204605F09DF9F7E720466E
S11337C0FFF726FAF3E788B994F9E430B4F8E45043
S11337D0002B0BDBB4F8E63043B9B4F8E8302BB96E
S11337E06378032BEDB204D0042B0FD000F04AFC15
S11337F0F5E6002DFAD0284601F04CFA0028F5D160
S113380004F0E6FC25700423637009E0D5B901F0E7
S113381041FA0028EAD104F0DBFC4FF44073238022
S113382004F0DCFC04F0D4FCD8F80030B3F8D24A3D
S113383004F0D4FC5FEADA1A204600F0FF8205F0B7
S11338401DFECCE6284601F025FA0028CED104F06E
S1133850BFFC2570E4E70028C8D1B4F8E410FF29C0
S113386006D9B4F8E6301BB1B4F8E830002BBDD16A
S113387094F82D30C9B28B4211D22379022BB5D0E2
S11338806378042B1AD0052BB0D194F82C304D1E3C
S1133890AB42C7D0204604F04BFFE9B210E0637896
S11338A0042B09D0052BA1D10029EED1204604F028
S11338B03FFF04F08DFCA6E70029B3D00139C9B25B
S11338C0204604F0CEFF002890D1ABE700288DD02D
S11338D0B4F8E830012B06D0B4F8E6301BB1B4F8E4
S11338E0E430002B82D16378042B10D0052B7FF4B5
S11338F07DAFA36A002B3FF479AF94F82C30D4F851
S1133900F4200133137007AB0093002305E0D4F8CF
S1133910F4200023137007AA00922A460121D4F848
S1133920F40000F061FBCEE700283FF45FAFB4F889
S1133930E830022B07D0B4F8E63023B1B4F8E43011
S1133940002B7FF453AFD4F8F42000231370D4F881
S1133950F42053706378042B19D0052B7FF446AF01
S1133960A36AD4F8F42063B11B78D80742BF137854
S113397043F001031370A36AD4F8F4201B78990769
S113398014D407AB00932A4600230221C7E794F816
S1133990F2302BB1D4F8F420137843F00103137000
S11339A094F8F330002BECD0D4F8F420137843F0DF
S11339B002031370E5E700287FF418AFB4F8E83089
S11339C023B1B4F8E630002B7FF410AF6378052BF5
S11339D07FF40CAFA36A002B3FF408AFB4F8E420E3
S11339E0012A7FF41FAF1B789A077FF51BAF013EB6
S11339F018BF012684F8F36014E7079304F0E8FB8A
S1133A00D8F80030B3F8D29A04F0E8FBA06A002892
S1133A103FF4ECAE94F8E670394604F01AFE05461D
S1133A2000283FF4E3AE94F8E230DB090B2E00F2F9
S1133A309580DFE806F0061B931B93932A939393D8
S1133A404A59002B3FF4D2AE63781A1F012A3FF67D
S1133A50CDAE042B02D1002F7FF4C8AED4F8F420ED
S1133A600023137006AA00924A4657E7002B7FF4FE
S1133A70BDAE63781A1F012A3FF6B8AE042B7FF45B
S1133A80D1AE002F7FF4B2AECCE6002B3FF4AEAE45
S1133A904668336A002B3FF4A9AEB4F8E810204618
S1133AA004F015FE07AB2364A968336A04F1E2004D
S1133AB0984708B9206499E62046FFF785F800285E
S1133AC03FF477AE0023236490E6002B3FF48EAEE0
S1133AD06378052B7FF48AAED4F8F430027E1A7032
S1133AE006AB00930023BFE7002B7FF47FAE63781F
S1133AF0052B7FF47BAE94F8E490494604F0D9FD9D
S1133B00064600283FF472AE696988423FF48AAEE3
S1133B10204604F0E9FD32463946204604F072FEA0
S1133B2028B16A69297E204604F06CFE5EE604F042
S1133B304FFB6E6185F8189004F050FB6B68D3F866
S1133B4008B0BBF1000F3FF46DAE336894F82C005D
S1133B500093AB684A463946D84763E643681B6A14
S1133B60002B3FF443AE816804F1E200984700283B
S1133B707FF458AE3AE604F02BFBD8F80030B3F8E3
S1133B80D27A04F02BFB94F8E22094F8E650B4F8CF
S1133B90E43006F0FD0101294FEAD21225D0002EAF
S1133BA07FF424AE002A3FF421AED4F8F4301E7022
S1133BB0D4F8F4305E706378042B56D0052B7FF470
S1133BC015AE06A9284600F095FC9DF818303BB1C7
S1133BD0D4F8F43001221A70D4F8F43000225A7068
S1133BE007AB00933A460023CFE6002A7FF4FEADEC
S1133BF06278042ADBB22BD0052A7FF4F7AD002BC0
S1133C007FF4F4AD012E0CBF00210121284600F001
S1133C102BFC00287FF4EAAD05F00F02EB0903EB5F
S1133C2042032344A06A93F8461004F012FD42684C
S1133C304769D6680346002E3FF4F4AD027E94F83B
S1133C402C003C6801949B6800932B46B047E9E53F
S1133C5005F07F0213437FF4C9AD012E0CBF002190
S1133C600121284600F000FC2DE66B067FF4BEAD72
S1133C70A7E76B1E012B3FF6B9ADA06A00283FF4FD
S1133C80B5AD012D94F8E61007D001F00F03C90972
S1133C9001EB4301214491F8461004F0DAFC0028BA
S1133CA03FF4A4AD43685B6A002B3FF49FAD816889
S1133CB05AE7012D27D0022D45D0002D7FF496AD73
S1133CC094F8E130B3427FF491AD05AB2364294607
S1133CD0B4F8E8300293204604F0ACFCB4F8E69063
S1133CE094F8E460074628B3B9F1040F2FD0B9F172
S1133CF0050F7FF456AD0146029B3246204605F07F
S1133D00A9F8256433E794F8E130B3421BD105AB3D
S1133D1039462364204604F08DFCB4F8E450B4F82A
S1133D20E690B4F8E860014608B920645EE5B9F1AC
S1133D30050F01D0276459E53346EAB2204605F061
S1133D4089F8276413E7204604F091FC0FE796BB3B
S1133D5090F81C9031464FF0100B494530D31FFAB0
S1133D608BF1204604F0B3FC5846FFF7C7FB4FF431
S1133D708070FFF7B1FB0420FFF7AEFB2846FFF786
S1133D8099FB0020FFF7BAFB0020FFF7A5FB0020FA
S1133D90FFF790FB029B102B02D02A4DB14523D88C
S1133DA0236C1B68002B7FF48DAE2046FEF70CFFBE
S1133DB0236C186083E606F101095FFA89F9C9E703
S1133DC0384604F046FC4368DB6A53B107A8039104
S1133DD09847FF2818BF013503991CBF0BF1180B36
S1133DE0EDB20131C9B2B8E73146384604F031FCCE
S1133DF04368DB6AFBB107A89847FF2883461AD0BB
S1133E003046FFF757FB0120FFF754FB0FFA8BF006
S1133E10082105EBC000FFF783FB0B4B9DF81C004A
S1133E20082103EBC000FFF77BFB0020FFF766FBD4
S1133E300020FFF751FB0136F6B2AFE705F00AFBAD
S1133E40FFF7CDBB8AA200006AA2000094120020F2
S1133E5070B504460E4604F0BBF9E56885B92469DB
S1133E608CB90A4B1B68D3F8CC5A65B12A6AC3F8DB
S1133E70CC2A2C622C7404F0B1F93560204670BD54
S1133E801C240025F7E71C24F5E700BF941200204A
S1133E9010B5044604F09CF900236374054B1B68B9
S1133EA0D3F8CC2A2262C3F8CC4ABDE8104004F00F
S1133EB095B900BF941200202DE9F043064687B05F
S1133EC0884691461F46002B42D00DF11300FFF7A0
S1133ED095F99DF81330052B16D11E4B06F00F01F2
S1133EE01B68F20902EB410203EB8203D3F8745717
S1133EF0CDB1287A00F0DCFC044630B92B78012BD4
S1133F0007D0287A00F0E6FC0224204607B0BDE87A
S1133F10F083EB7803F00303032B01D1330604D4BD
S1133F20287A00F0D7FC2524EFE705AB03939DF82E
S1133F303C30CDE901030E9B00934A463B46414683
S1133F40284605F0BFF80446287A00F0C3FCDCE7F5
S1133F502224DAE7941200202DE9F043074687B0C3
S1133F60884691461E46002B3AD00DF11700FFF704
S1133F7045F99DF81730033B022B15D8194B1B68E4
S1133F80D3F87457D5B1287A00F092FC044628B1CE
S1133F9000233360204607B0BDE8F0832B78012B63
S1133FA006D0287A00F096FC002333600224F1E75F
S1133FB0EB789B0706D0287A00F08CFC0023336052
S1133FC02524E7E700900346CDE9019642463946A9
S1133FD0284605F083F90446287A00F07BFCD9E7EB
S1133FE02224D7E7941200202DE9F04786B08046BA
S1133FF00E9E0F4691469A46002E3FD00DF11700B3
S1134000FFF7FCF89DF81730033B022B19D82FB9A2
S113401037602124204606B0BDE8F087184B1B68A2
S1134020D3F87857BDB1287A00F042FC044610B1A9
S113403000233360EEE72B78012B06D0287A00F0BA
S113404049FC002333600224E4E7EB789B0706D0A5
S1134050287A00F03FFC002333602524DAE7CDE919
S113406000090346CDE902A63A464146284605F032
S113407029F80446287A00F02DFCCBE72224C9E76E
S1134080941200201B4B1B682DE9F041D3F87457A0
S1134090D3F878675DB356B3287A00F009FC044678
S11340A038B9307A00F004FC044628B1287A00F0CC
S11340B011FC2046BDE8F0812B78012B15D196F830
S11340C00080B8F1010F10D14146802000F0FAFFC2
S11340D041460746204600F0F5FF074314BF01247C
S11340E00024307A00F0F6FBE0E70224F9E7252407
S11340F0DFE700BF9412002038B5274B1C6800226C
S11341002346FF251146132A03F1140002F101028C
S11341102ED9202A0346F6D18022002104F274709D
S113412005F0EBFB04F2FC73C4F8CC3A04F6CC20A3
S113413004F5026304F52F610022834243E9092256
S113414043E9072243E9042203F8142C03F8132C4F
S113415043F8082C1CD043F8043C24338B42ECD1A4
S113416000204FF0FF3384F8F407C4F8F83738BD63
S113417083F8E65583F8E715A3F8E81583F8EA15FC
S113418083F8EC15C3F8F015C3F8F4150346BAE741
S1134190C4F8C82AE4E700BF941200203D4B2DE97F
S11341A0F34100F00F021B68C00900EB420003EB6F
S11341B080030F46D3F8744794B1207A94F80280B0
S11341C000F076FB064660B9637823B9207A00F0E4
S11341D081FB022605E0E5683DB9207A00F07AFB10
S11341E02126304602B0BDE8F0816B7C012BEDD96D
S11341F00090002F4CD1D5E9013029685FEAD81826
S1134200014423D01B1A10D00A462046294604F044
S113421033FF024608BB207A00F05CFB00990029BA
S1134220DFD0204605F027F8DBE72B7CDA0724D51E
S1134230A188B0FBF1F201FB1202F2B9E8B123F05C
S113424001032B74A07805F03EF9E2E7EA68A07850
S113425001AB00F03FFE024620B16946204604F05F
S1134260D3FED8E7AA68019B1A44AA602BB1E96877
S11342708B4202D36B689A4201D10022EDE7296890
S11342809B1A20460A442946019305F00FF8C0E71B
S11342903A46E2E7941200202DE9F04F85B0DFF8AA
S11342A004810293924600F00F03C20902EB430219
S11342B0D8F8003002F5EE7203EB820307465B6820
S11342C001928946002B6BD103F082FFD8F80030AD
S11342D0D3F8F827B2FA82F5C5F11F064FF0010BA7
S11342E0F6B20BFA06F622EA0602C3F8F82793F8A8
S11342F0F4275A4483F8F42703F070FF284600F0AB
S11343003DFA0446B0B9284600F0A0FA044670B954
S1134310C9F3C1235B44C9F30A020AF00301384616
S113432000F0CAFC0446A0B1284600F0AFFA2846C3
S113433000F046FA03F04CFFD8F80030D3F8F82721
S11343403243C3F8F82793F8F427013A83F8F427A3
S113435020E0D8F80060142303FB056202F2E45263
S1134360039203F035FF142303FB0563029A83F8D9
S1134370EA2583F8E675019A83F8E7A5A3F8E8959A
S1134380A3F8E4B583F8EC55D8F8003003EB8203C6
S1134390039A5A6003F022FF204605B0BDE8F08F6F
S11343A02524F9E7941200202DE9F347DFF8B490AF
S11343B000F00F02C30903EB4203D9F8002003F510
S11343C0EE7302EB8302074654684FEA8308002C1D
S11343D046D0207A00F06CFA054628B92378267A6C
S11343E033B9304600F076FA284602B0BDE8F087CB
S11343F001A9204604F012FE4FF0000A84F800A040
S1134400054603F0E5FED9F80030C6F11F06D3F8DF
S1134410F827F6B20121B1400A43C3F8F82793F80C
S1134420F427013A83F8F42703F0D8FE384600F065
S1134430A7FC84F801A0D9F800304344C3F804A0D1
S1134440207A00F047FA207A00F0BAF9207A00F0D6
S11344501DFA01990029C7D0204604F00CFFC3E7D8
S11344602525C1E794120020214B73B500F00F02FB
S11344701B68C00900EB420003EB80030E46D3F82F
S1134480745795B3287A00F013FA60B92B78019029
S1134490012B0AD0022B18D00224287A00F01AFA31
S11344A00199F1B9204602B070BD46B101A9284670
S11344B004F0B4FD04460028EFD102232B70A87841
S11344C0314600F0FFFD0446E7E746B9A8783146D7
S11344D000F0F8FD04460028DFD101232B700024EE
S11344E0DBE7284604F0C7FEDCE72520DBE700BF56
S11344F0941200200A4B00F00F021B68C00900EB65
S1134500420003EB8003D3F8743733B11B789A1E4F
S11345105342534100200B7070472520FBE700BF36
S11345209412002008B50F4B00F00F021B68C0095D
S113453000EB420003EB8003D3F874377BB15A7865
S1134540012A04D1187A04F0B3FF002008BD023A0E
S1134550012AFAD89878002104F036FDF5E72120E5
S1134560F4E700BF9412002008B50D4B1B6800F05F
S11345700F0003EBC003D3F878377BB15A78012AD4
S113458004D1187A04F094FF002008BD023A012AED
S1134590FAD89878002104F017FDF5E72120F4E714
S11345A0941200202F4B2DE9F7431B680F46C209D4
S11345B000F00F0102EB410203EB82030646D3F83D
S11345C07457002D4BD0287A00F072F90446002865
S11345D03BD195F80090B9F1010F3AD1EB7803F093
S11345E00303012B37D06B78BBBB01A92846FFF727
S11345F02FFC044630BBDDF80480284688F811906F
S1134600414685F8019004F0EDFC304604F05BFF70
S1134610044688B9287A00F05DF93946287A00F012
S1134620E1F80746287A00F043F9072F044603D13E
S1134630304600F0F3FC3C46284604F0DCFC4046DF
S1134640FFF726FC287A00F045F9204603B0BDE8C0
S1134650F0830224F6E72524F4E70324F2E7252473
S1134660F3E700BF94120020354B2DE9F7431B6894
S11346700F46C20900F00F0102EB410203EB820373
S11346800646D3F87457002D57D0287A00F010F955
S11346900446002840D195F80090B9F1010F46D1A5
S11346A0EB7803F00303012B43D06B78002B42D14A
S11346B069462846FFF7CCFB044650BBDDF8008072
S11346C0284688F81190414685F8019004F08AFC48
S11346D02246214601AB304600F086FB044690B9E1
S11346E0287A00F0F7F83946287A00F07BF8074674
S11346F0287A00F0DDF857EA0003044610D130466A
S113470004F0DFFE0446284604F075FC4046FFF73B
S1134710BFFB287A00F0DEF8204603B0BDE8F08342
S1134720072FF0D1304600F079FC3C46EBE7022439
S1134730EFE72524EDE70324EBE72524ECE700BFAE
S11347409412002008B5094A0821072001F036F91F
S1134750074B186040B1074A0748002100F02AFFC0
S1134760B0FA80F0400908BD0120FCE7FCA200007B
S1134770D020002014A30000A9940000132810B531
S1134780044614D80B4A010102EB00130A485050A6
S113479000211A461420C3E90111D96001F026F85A
S11347A0064B43F82400B0FA80F0400910BD012004
S11347B0FCE700BF901F0020CAA20000401F002099
S11347C0132838B5044601D9012038BD044D55F8E5
S11347D0200001F0D3F80028F6D145F82400F4E7CE
S11347E0401F0020132838B505460C4618D8A1B13F
S11347F004F07AFE00FB04F101F2E7314FF47A731E
S1134800B1FBF3F1084B53F8250001F047F8831C82
S113481008D0003818BF012038BD4FF0FF31F1E750
S11348200120F9E70720F7E7401F0020132808B507
S113483008D8054B53F8200001F06AF8003818BF77
S1134840012008BD0120FCE7401F0020132810B5FB
S1134850044613D80A480B49220100EB0413815083
S113486000221846C3E90122DA6000F0F5FE064B87
S113487043F82400B0FA80F0400910BD0120FCE7A1
S1134880B01D0020D9A20000F01E0020132838B566
S1134890044601D9012038BD044D55F8200000F02C
S11348A081FF0028F6D145F82400F4E7F01E00202B
S11348B0132808B50AD8064B4FF0FF3153F82000EF
S11348C000F014FF003818BF012008BD0120FCE7E8
S11348D0F01E0020132808B508D8054B53F8200013
S11348E000F034FF003818BF012008BD0120FCE7A8
S11348F0F01E002007B5014606484FF0FF330DF1C6
S11349000702006801F0DEF8003818BF012003B088
S11349105DF804FBD02000200146054808B50023BB
S11349201A46006801F090F8003818BF012008BD4D
S1134930D020002073B57148714CFCF7CFFE0122E2
S113494011460520FCF740FFD4F8F0316D4823F000
S11349500703C4F8F0310121FCF712F801221146D3
S11349601046FCF731FF0121C4F88C106648FCF7AF
S113497007F8D4F8B030644843F48063C4F8B03026
S1134980FCF70CFD614BDA6B22F47F7222F0030218
S1134990DA63DA6B80B200EB40004FF47A7100F214
S11349A0E730B0FBF1F010434FF42472D8631A607F
S11349B05A6942F001025A6103229A61544B4FF042
S11349C08042C3F88420BFF34F8FBFF36F8F514BE6
S11349D09A6822F001029A6020221969002901DBF9
S11349E0013AFAD11A6942F001021A61494B2022B4
S11349F01969CC0701D5013AFAD1DA68434942F47E
S1134A004072DA60DA6842F08042DA600022C3F869
S1134A10002E1A604A6B42F080024A630322C3F8F4
S1134A2000284FF484621A613A4B202219698806DF
S1134A3001D5013AFAD11A6942F010021A61354AD5
S1134A4020231169C90601D5013BFAD10023C2F81C
S1134A501038C2F81438C2F81C38D2F8001941F0E2
S1134A600061C2F80019D2F8001B41F00061C2F8DD
S1134A70001B1C464FF09046FF255A0102F180406E
S1134A8000F5083100F5801001F55E21D0F8200909
S1134A900190019801940028B8BF01960198C1F8CB
S1134AA0200902F1804000F5801002F18042C0F834
S1134AB03049C0F82859D1F8200B0190019801948D
S1134AC00028B8BF019602F5801201330198C1F89D
S1134AD0200B062BC2F8304BC2F8285BCDD10D4B0E
S1134AE09C61D3F8002822F4FE62C3F80028002059
S1134AF00C22C3F8002E02B070BD00BF006CDC02B3
S1134B0000400E400C7F3A000408280000200240B8
S1134B1000E100E00000104018B1034B03600020E6
S1134B2070472220704700BF38A30000254A264B57
S1134B30002010B583F8A40002F55E23D3F8001E0C
S1134B4021F00401C3F8001ED3F8001E21F008016F
S1134B50C3F8001ED3F8001E21F00201C3F8001EA2
S1134B60D3F8001E21F00101C3F8001E516B41F07F
S1134B70800151634FF0FF3159611449996199687B
S1134B8041F020019960996841F001019960104950
S1134B904FF080444C60516B21F080015163D3F895
S1134BA0002E42F00202C3F8002ED3F8002E42F089
S1134BB00102C3F8002ED3F8042822F00202C3F83D
S1134BC0042810BD00200240D4200020043880C0F6
S1134BD000E100E038B52C4C2C4AD4F8003E23F018
S1134BE00203C4F8003ED4F8003E23F00103C4F8E5
S1134BF0003E536B43F080035363254B4FF08042D8
S1134C00C3F88420BFF34F8FBFF36F8F00254FF09D
S1134C10FF33A5616361A36823F00103A360D4F8A3
S1134C20043843F00203C4F80438236943F0010351
S1134C3023610220FDF7DAFA2B462269D20703D555
S1134C400133B3F5803FF8D1104A536B23F080034E
S1134C505363D4F8003E43F00203C4F8003ED4F892
S1134C60003E43F00103C4F8003ED4F8003E43F094
S1134C700403C4F8003ED4F8003E43F00803C4F82B
S1134C80003E002038BD00BF00001040002002405C
S1134C9000E100E0074BD3F8002822F4FE62C3F8D9
S1134CA00028D3F8002842EA0012C3F800280020A4
S1134CB0704700BF00001040F0B500F00F05C409B4
S1134CC021B18B1E012B27D9212013E0284BD3F8C7
S1134CD01C1884B141F00101C3F81C18D3F8101852
S1134CE041F00101C3F81018224B04EB45040020E5
S1134CF023F81420F0BD41F48031C3F81C18D3F814
S1134D00141841F00901C3F81418D3F8001B41F03A
S1134D100061C3F8001BE7E70126C009DFF85CC0A7
S1134D2015484FEA814105F1FF3306FA05F610D024
S1134D3003F5DE4342EA855749335B01394341EACF
S1134D400C01C1500A49D1F81C383343C1F81C384E
S1134D50CAE703F5DE4359335B01114341EA0C0111
S1134D60C1500349D1F81C3843EA0643EEE700BFBB
S1134D7000001040D42000200020024000800010D9
S1134D8010B510F00F0419BF1249134A134A1449FD
S1134D901EBF04F1FF3301EB431102EB4312C009C0
S1134DA015BF0A68116822F4004221F4004114BFBF
S1134DB00A6011600B494FF00103D1F81C2803FA73
S1134DC004F308BF1B0422EA0303C1F81C380020C3
S1134DD010BD00BF20091040200B1040000B1040F4
S1134DE000091040000010402DE9F04F984609B129
S1134DF08B0763D100F00F046300C60903EBD010E6
S1134E0054B3013C2E4D670107F11003143705EB31
S1134E1044142B442F44D4F800C02A4D06BBCCF3D1
S1134E208146022E1CD1B2F5007F1DD3D4F8009028
S1134E301E684FF4007E06F0604635F810B00BF1A2
S1134E40FF3CF444BCFBFBFC1FFA8CFA46EACC465C
S1134E500BFB0AF2324317E01B4C1C4B1C4FDAE7E6
S1134E6035F810E0964501D91FFA82FED4F8009077
S1134E701E6806F06046002ADFD135F81020324360
S1134E8042F400224FF0010A00F10E0600F1380C42
S1134E9045F8261035F810600C3016FB0AF625F894
S1134EA01C60396005EB400149F00446002088800D
S1134EB01A602660C8F800E0BDE8F08F2120FBE707
S1134EC0200B1040D4200020000B1040100B104089
S1134ED0140B104010B5C10900F00F04074801EB92
S1134EE0440100EB4101888B904294BF18601A6022
S1134EF090428CBF3520002010BD00BFD42000207C
S1134F00F0B5054611F0030026D105F00F04660044
S1134F104FEAD51C06EBD516BCB1104D67013D44D4
S1134F202D68BCF1000F03D0C5F38145022D0ED0CE
S1134F300B4D35F81650954228BF95B254B1094A25
S1134F406401224411601D60F0BD044DE8E74FF494
S1134F500075F0E7034AF5E72120F5E70009104062
S1134F60D420002014091040F0B510F00F0613BF30
S1134F70234B244C244B06F1FF311EBF03EB411499
S1134F8023461033D4F800C019682768C90CC90433
S1134F90C00941EA02054CF0044029D0C7F3814717
S1134FA0022F25D182B1194901EB86014E88B2FB4B
S1134FB0F6F106FB1126002E18BF013145EAC14166
S1134FC0196020600020F0BD41F4002119602060C8
S1134FD0002EF7D10E4B0F4AC3F8102B0E4AC3F81C
S1134FE0142BD3F8002B42F00442C3F8002BE9E75A
S1134FF045F400251D602060002AE9D0E2E700BFE7
S1135000200910400009104010091040D42000204D
S113501000001040400008606021002010F00F02E2
S113502030B531D0531E224C5D0105F1080104EB6B
S11350304313214404F500742C44C00928D0186893
S113504040F00060186020200C68650601D4013827
S1135050FAD1186840F08040186020201C68640071
S113506001D50138FAD10B6843F002030B609201B9
S1135070104942F020020A6120230A69900601D5F2
S1135080013BFAD1002030BD0B4B0C490C4CD4E74A
S11350902368084A43F000632360136943F0100354
S11350A0136120231169C906ECD5013BFAD1E9E764
S11350B02009104000001040000910400809104069
S11350C0000B104010B510F00F0419BF1D4B1E4A01
S11350D01E4B1F4A1EBF04F1FF3403EB441302EBC3
S11350E04412C0091AD01A6859B1002ABEBF1A68FE
S11350F042F080421A601A6842F400121A600020DA
S113510010BD1968C2F38142023A21F40011012A48
S11351101960F4D81A6842F08052EFE7136819B1A5
S113512043F400131360EAE71168C3F38143023BBD
S113513021F40011012B1160E1D8136843F080536E
S1135140F0E700BF20091040200B10400009104078
S1135150000B10402DE9F84FA54CA64A656969007B
S113516015D5D4F8003E23F00203C4F8003ED4F869
S1135170003E23F00103C4F8003E536B43F0800368
S1135180536303F003FF636943F0804363616B0778
S113519020D5974C974E6268636843F4602343F4C8
S11351A041735707636015D503F0F6FE924B002256
S11351B083F8A420736B23F080037363D4F8003E58
S11351C043F00203C4F8003ED4F8003E43F0010368
S11351D0C4F8003E680300F1E88029030AD5844B33
S11351E0DFF82482D3F81848DFF82092240C002C2E
S11351F040F01081814B1D4252D07D4C7D4AD4F841
S1135200003E23F00203C4F8003ED4F8003E23F02D
S11352100103C4F8003E536B43F08003536303F06F
S1135220C1FED4F8043823F00103C4F80438A36998
S113523043F44023A361636943F480536361636966
S113524043F400036361D4F8003823F4FE63C4F824
S113525000388023636203F58003A3624033C4F8FB
S113526004314033C4F808314033C4F80C314033BE
S1135270C4F810314033C4F814314033C4F8183141
S11352805D4B002283F8A4208C335D4AC4F8102BB4
S1135290C4F8143BD4F8003B43F00443C4F8003B87
S11352A0AC042FD5524BD3F8082802F00602062A84
S11352B00DD1D3F8002922F00302C3F80029DA68DB
S11352C022F47052DA60DA6842F4A052DA60484B91
S11352D0D3F8042842F48072C3F804285A6942F4CB
S11352E000525A61444A012182F8A4108C32444984
S11352F0C3F8101BC3F8142BD3F8002B42F004425C
S1135300C3F8002BA80741BF394A536943F002038D
S11353105361690541BF364A536943F4806353615D
S11353202A051FD5324CD4F80838DB0701D503F021
S11353303FFE63692F4A43F4006363612E4B93F885
S1135340A4307BB1536B23F080035363D4F8003E45
S113535043F00203C4F8003ED4F8003E43F00103D6
S1135360C4F8003E002D1DDA214B2249D3F8002E4B
S113537022F00202C3F8002ED3F8002E22F001021C
S1135380C3F8002E4A6B42F080024A63D3F8042823
S113539022F00102C3F804285A6942F000425A611B
S11353A003F00CFE0020BDE8F88F114E154FD6F81F
S11353B01808DFF85C8080B200283FF40EAFB0FA22
S11353C080F0C0F11F0010F0FF001ABF08EB40147A
S11353D0183C3C46D4F8009019F0010F01D0FFF7B7
S11353E0C3F8C4F80090D6F8180880B2E4E700BF08
S11353F00000104000200240D42000200010800053
S11354004000086008091040000B1040100B1040C9
S113541020091040B4FA84F4C4F11F0414F0FF040A
S113542059D0661E2E4B4FEA461A0AF1080B0AF1B0
S1135430100A03EB46169B449A44DBF800703A07C3
S113544010D528490846FEF7A5F8274B25492748D3
S1135450C3F8100BC3F8141BD3F8001B41F004412C
S1135460C3F8001BFB072BD52046FFF75BF8DAF8DF
S113547000301F48C3F3120C33686100C3F3814347
S1135480022BC9B20ABF01F1380330F8113030F8E9
S113549013300C3100EB4100A3EB0C0381889BB269
S11354A00B44838064B9104B1049C3F8101B0D4999
S11354B0C3F8141BD3F8001B41F00441C3F8001BCC
S11354C0336843F000633360074BCBF80070D3F8C4
S11354D01848240C8BE6DFF81CB04646CA46ACE7F5
S11354E0200B1040602100200000104040000860A4
S11354F0D4200020080B10400E4B9A68D10717D512
S11355001A6942F001021A6103F541230A22C3F821
S1135510D0201A6B42F400021A635A6A1202FCD5B4
S1135520DA6A42F40002DA621A6B22F400021A63A5
S1135530FFF710BE00200240EFF3058373B9EFF3C9
S11355401082094B12B9EFF3118212B11A68022AC0
S113555004D0186828B901221A6070476FF005005A
S113556070474FF0FF3070472C27002010B5EFF341
S11355700583ABB9EFF310820C4B12B9EFF3118230
S113558012B11A68022A0BD01A68012A0BD1084AF0
S11355900024D47702221A6001F0B0F8204610BD2E
S11355A06FF00500FBE74FF0FF30F8E72C270020F1
S11355B000ED00E0F0B587B0144600220B460592DA
S11355C0EFF3058222BBEFF3108212B9EFF31182DD
S11355D01AB1204A1268022A1AD0C8B1002C34D059
S11355E0A56925B16A1E372A02D9002011E01825C1
S11355F06268D207F9D466696EB1B208D4E9027C54
S1135600216857B1BCF1570F02D9246904B1AEB96E
S1135610059807B0F0BDA022F0E7BCF1000FF7D168
S11356202469002CF4D105ACCDE9005492B204F005
S1135630BFF801281CBF00230593E9E7CDE9014722
S1135640009501F00DF80590E2E721461825A02207
S1135650E9E700BF2C27002038B50546EFF30583A2
S113566013B10024204638BDEFF3108313B9EFF3D0
S113567011831BB11C4B1B68022BF2D02DB36B683A
S11356801A07EED4D5E9021203F0010371B14F2ACF
S1135690E7D993B1042003F0F6FF04460028E0D0D4
S11356A0296800F087FE44F00104DBE7002AD8D122
S11356B0ABB1042003F0FCFFEFE7012003F0E3FFAC
S11356C004460028CDD0296806E0012003F0F0FF4D
S11356D004460028C5D0294600F06CFEC2E701202C
S11356E003F0E6FFECE700BF2C270020034610B5CB
S11356F020F001000C4603F00102EFF30581E9B943
S1135700EFF3108111B9EFF3118119B10E49096852
S1135710022913D0012B14D9214662B100F0DAFD1D
S1135720012801D1002010BD002C14BF6FF001002E
S11357306FF00200F7E700F01FFDF1E76FF00500DE
S1135740F1E76FF00300EEE72C270020024608B5CE
S113575020F0010002F00103EFF30581C9B9EFF372
S1135760108111B9EFF3118119B10D4909680229AA
S11357700FD0012A10D93BB100F0A0FB01280CBFC7
S113578000206FF0020008BD1A46194600F0E8FA3E
S1135790F4E76FF00500F6E76FF00300F3E700BFEE
S11357A02C27002010B5034620F00104EFF30582F6
S11357B09AB9EFF3108212B9EFF311821AB10A4ABF
S11357C01268022A09D0012B0AD9204600F004FEEF
S11357D0204600F019FE002010BD6FF00500FBE725
S11357E06FF00300F8E700BF2C27002073B50E46C6
S11357F01546EFF30583D3BBEFF3108313B9EFF32F
S113580011831BB1244B1B68022B30D078B3B042F8
S11358102DD375B9012837D10322002100F02AFACB
S1135820044620B3AEB96DBB2946204600F0C2FD44
S11358301EE0D5E90232C3B14F2A18D901281AD182
S1135840032200920022114600F0D6F9044670B1FA
S1135850C6B100231A461946204600F081FA0128F1
S1135860E1D0204600F0D0FD01E0002AD2D000248F
S1135870204602B070BD1A46314600F037FA04469D
S11358800028F4D02D68CFE7314600F04FFA0446E3
S11358900028C8D1EBE700BF2C27002013B50C4625
S11358A088B3EFF305834BB9EFF3108313B9EFF328
S11358B01183F3B1154B1B68022B1AD11CBB01AA2F
S11358C02146019400F026FD012803D06FF0020068
S11358D002B010BD019B0BB90020F9E74FF0E023A3
S11358E04FF08052C3F8042DBFF34F8FBFF36F8F77
S11358F0F2E7214600F040FC0128EDD0002CE5D071
S11359006FF00100E4E76FF00300E1E72C270020CB
S113591007B570B3EFF305834BB9EFF3108313B9F5
S1135920EFF31183EBB1144B1B68022B19D1002345
S113593001A9019300F03CFB012804D06FF00200A0
S113594003B05DF804FB019B4BB14FF0E0234FF033
S11359508052C3F8042DBFF34F8FBFF36F8F002025
S1135960EEE700231A46194600F0FAF90128F6D0AA
S1135970E4E76FF00300E3E72C27002010B50446AA
S1135980EFF3058393B9EFF3108313B9EFF31183A6
S11359901BB1094B1B68022B08D054B1204600F000
S11359A01BFD204600F030FD002010BD6FF0050007
S11359B0FBE76FF00300F8E72C27002073B51546CA
S11359C0EFF305831BB10024204602B070BDEFF352
S11359D0108313B9EFF311831BB11A4B1B68022B0D
S11359E0F1D00028EFD00029EDD005B3D5E902327B
S11359F093B14F2AE7D92A69002AE4D06E6901FBE2
S1135A0000F4A642DFD30024009400F0F5F8044625
S1135A100028D8D02D6810E0002AD4D12B69002B9F
S1135A20D1D16A69002ACED100F024F9EFE72A46E1
S1135A3000F020F904460028C5D02946204600F08D
S1135A40B9FCC1E72C27002013B51C46EFF30583EE
S1135A504BB9EFF3108313B9EFF3118303B3184B6E
S1135A601B68022B1CD140B339B334BB234601AAB3
S1135A70019400F041FA012803D06FF0020002B053
S1135A8010BD019B0BB90020F9E74FF0E0234FF064
S1135A908052C3F8042DBFF34F8FBFF36F8FF2E72B
S1135AA058B151B10023224600F05AF90128EAD036
S1135AB0002CE2D06FF00100E1E76FF00300DEE7B5
S1135AC02C27002013B51C46EFF305834BB9EFF3E5
S1135AD0108313B9EFF31183FBB1174B1B68022B2F
S1135AE01BD130B329B324BB01AA019400F012FCEA
S1135AF0012803D06FF0020002B010BD019B0BB966
S1135B000020F9E74FF0E0234FF08052C3F8042D52
S1135B10BFF34F8FBFF36F8FF2E750B149B1224605
S1135B2000F094FA0128EBD0002CE3D06FF00100D0
S1135B30E2E76FF00300DFE72C270020024840F67D
S1135B40741102F00CBB00BF6CA30000034B036094
S1135B50034B0B60A0231360704700BFD4260020C2
S1135B6054240020034B0360034B0B60A0231360F9
S1135B70704700BFFC2300207C21002038B50D466F
S1135B80044620B91B484FF48D7102F0E8FA01F085
S1135B9041FBD4E90F31226862604B43D0185B1A91
S1135BA01A44A060FF230020A063E26084F844301C
S1135BB084F84530A5B9236973B104F1100000F0ED
S1135BC081FF48B14FF0E0234FF08052C3F8042D19
S1135BD0BFF34F8FBFF36F8F01F03AFB012038BD45
S1135BE004F1100003F083FC04F1240003F07FFCB3
S1135BF0F2E700BFB2A30000F7B50D4616461C46F7
S1135C00074620B91A4840F2551102F0A8FA24B9FF
S1135C10174840F2591102F0A2FA1EB945B14FF4E7
S1135C20AF7102E025B940F25D11114802F097FA14
S1135C3050230193019B502B04D00D484FF4B371B2
S1135C4002F08DFA019B7CB10121002D08BF26468C
S1135C50C4E90F7584F8461026602046FFF78EFFCE
S1135C609DF8203084F84C30204603B0F0BD00BFCE
S1135C70B2A30000F8B50D4617460646E0B91A4827
S1135C8040F2931102F06BFA002404F1500001F089
S1135C90D5FB044670B1002380F8463015B300F1FB
S1135CA05003C4E90F65236001212046FFF766FF16
S1135CB084F84C702046F8BD0029E5D001FB00F4BF
S1135CC0B4FBF1F3834204D0074840F29B1102F085
S1135CD046FA14F1510FD8D903484FF4CF7102F0AA
